:100000000C945A000C9464000C9464000C946400EA
:100010000C9464000C9464000C9464000C946400D0
:100020000C9464000C9464000C9464000C946400C0
:100030000C9464000C9464000C9464000C946400B0
:100040000C9464000C9464000C9464000C946400A0
:100050000C9464000C9464000C9464000C94640090
:100060000C9464000C9464000C9464000C94640080
:100070000C9464000C9464000C9464000C94640070
:100080000C9464000C9464000C9464000C94640060
:100090000C9464000C9464000C9464000C94640050
:1000A0000C9464000C9464000C9464000C94640040
:1000B0000C94640011241FBECFEFD8E0DEBFCDBF8B
:1000C0000E948C000C94B0000C9400001092C500AB
:1000D00087E68093C40088E18093C1008EE080931E
:1000E000C20008958091C0008823E4F78091C60083
:1000F000089520E030E00BC014BC81E085BD16BC43
:10010000A89BFECF85B3816085BB2F5F3F4F2C3E00
:1001100084EF380788F308958FEF84B985B90E947A
:1001200066000E947200823491F40E94790015B832
:100130000E9479008FEF85B90E947200843519F40E
:100140008FEF85B9EECF863481F715B8EACF8435C5
:1001500019F48FEF85B9E5CF863419F715B8E1CFDB
:04016000F894FFCF41
:00000001FF
